{
  "_format": "hh-sol-artifact-1",
  "contractName": "InvoicePayment",
  "sourceName": "contracts/InvoicePayment.sol",
  "abi": [
    {
      "anonymous": false,
      "inputs": [
        {
          "indexed": true,
          "internalType": "uint256",
          "name": "invoiceId",
          "type": "uint256"
        },
        {
          "indexed": true,
          "internalType": "address",
          "name": "payer",
          "type": "address"
        },
        {
          "indexed": false,
          "internalType": "uint256",
          "name": "amount",
          "type": "uint256"
        }
      ],
      "name": "InvoicePaid",
      "type": "event"
    },
    {
      "anonymous": false,
      "inputs": [
        {
          "indexed": true,
          "internalType": "uint256",
          "name": "invoiceId",
          "type": "uint256"
        },
        {
          "indexed": true,
          "internalType": "address",
          "name": "recipient",
          "type": "address"
        },
        {
          "indexed": false,
          "internalType": "uint256",
          "name": "amount",
          "type": "uint256"
        }
      ],
      "name": "InvoiceRegistered",
      "type": "event"
    },
    {
      "inputs": [
        {
          "internalType": "uint256",
          "name": "invoiceId",
          "type": "uint256"
        }
      ],
      "name": "getInvoice",
      "outputs": [
        {
          "internalType": "uint256",
          "name": "amount",
          "type": "uint256"
        },
        {
          "internalType": "address",
          "name": "recipient",
          "type": "address"
        },
        {
          "internalType": "bool",
          "name": "paid",
          "type": "bool"
        },
        {
          "internalType": "bool",
          "name": "exists",
          "type": "bool"
        }
      ],
      "stateMutability": "view",
      "type": "function"
    },
    {
      "inputs": [
        {
          "internalType": "uint256",
          "name": "invoiceId",
          "type": "uint256"
        }
      ],
      "name": "payInvoice",
      "outputs": [],
      "stateMutability": "payable",
      "type": "function"
    },
    {
      "inputs": [
        {
          "internalType": "uint256",
          "name": "invoiceId",
          "type": "uint256"
        },
        {
          "internalType": "uint256",
          "name": "amount",
          "type": "uint256"
        }
      ],
      "name": "registerInvoice",
      "outputs": [],
      "stateMutability": "nonpayable",
      "type": "function"
    }
  ],
  "bytecode": "0x608060405234801561001057600080fd5b5061092b806100206000396000f3fe6080604052600436106100345760003560e01c80633a23cc0a146100395780636dbf56ad14610079578063ac60a6cd146100a2575b600080fd5b34801561004557600080fd5b50610060600480360381019061005b9190610590565b6100be565b6040516100709493929190610628565b60405180910390f35b34801561008557600080fd5b506100a0600480360381019061009b919061066d565b61019f565b005b6100bc60048036038101906100b79190610590565b61037b565b005b6000806000806000806000878152602001908152602001600020604051806080016040529081600082015481526020016001820160009054906101000a900473ffffffffffffffffffffffffffffffffffffffff1673ffffffffffffffffffffffffffffffffffffffff1673ffffffffffffffffffffffffffffffffffffffff1681526020016001820160149054906101000a900460ff161515151581526020016001820160159054906101000a900460ff161515151581525050905080600001518160200151826040015183606001519450945094509450509193509193565b60008083815260200190815260200160002060010160159054906101000a900460ff1615610202576040517f08c379a00000000000000000000000000000000000000000000000000000000081526004016101f99061070a565b60405180910390fd5b60008111610245576040517f08c379a000000000000000000000000000000000000000000000000000000000815260040161023c90610776565b60405180910390fd5b60405180608001604052808281526020013373ffffffffffffffffffffffffffffffffffffffff168152602001600015158152602001600115158152506000808481526020019081526020016000206000820151816000015560208201518160010160006101000a81548173ffffffffffffffffffffffffffffffffffffffff021916908373ffffffffffffffffffffffffffffffffffffffff16021790555060408201518160010160146101000a81548160ff02191690831515021790555060608201518160010160156101000a81548160ff0219169083151502179055509050503373ffffffffffffffffffffffffffffffffffffffff16827f9d8cb2e9c45bdb6586d7b72180ff83cd814255fae7fb05050e7ba95464af75538360405161036f9190610796565b60405180910390a35050565b600080600083815260200190815260200160002090508060010160159054906101000a900460ff166103e2576040517f08c379a00000000000000000000000000000000000000000000000000000000081526004016103d9906107fd565b60405180910390fd5b8060010160149054906101000a900460ff1615610434576040517f08c379a000000000000000000000000000000000000000000000000000000000815260040161042b90610869565b60405180910390fd5b8060000154341461047a576040517f08c379a0000000000000000000000000000000000000000000000000000000008152600401610471906108d5565b60405180910390fd5b60018160010160146101000a81548160ff0219169083151502179055508060010160009054906101000a900473ffffffffffffffffffffffffffffffffffffffff1673ffffffffffffffffffffffffffffffffffffffff166108fc349081150290604051600060405180830381858888f19350505050158015610501573d6000803e3d6000fd5b503373ffffffffffffffffffffffffffffffffffffffff16827fa6abfda59e12fa300d17e1aa76bd3233eaf23ee4feb4b02b6516ad1d60be8400346040516105499190610796565b60405180910390a35050565b600080fd5b6000819050919050565b61056d8161055a565b811461057857600080fd5b50565b60008135905061058a81610564565b92915050565b6000602082840312156105a6576105a5610555565b5b60006105b48482850161057b565b91505092915050565b6105c68161055a565b82525050565b600073ffffffffffffffffffffffffffffffffffffffff82169050919050565b60006105f7826105cc565b9050919050565b610607816105ec565b82525050565b60008115159050919050565b6106228161060d565b82525050565b600060808201905061063d60008301876105bd565b61064a60208301866105fe565b6106576040830185610619565b6106646060830184610619565b95945050505050565b6000806040838503121561068457610683610555565b5b60006106928582860161057b565b92505060206106a38582860161057b565b9150509250929050565b600082825260208201905092915050565b7f496e766f69636520616c72656164792072656769737465726564000000000000600082015250565b60006106f4601a836106ad565b91506106ff826106be565b602082019050919050565b60006020820190508181036000830152610723816106e7565b9050919050565b7f416d6f756e74206d7573742062652067726561746572207468616e2030000000600082015250565b6000610760601d836106ad565b915061076b8261072a565b602082019050919050565b6000602082019050818103600083015261078f81610753565b9050919050565b60006020820190506107ab60008301846105bd565b92915050565b7f496e766f696365206e6f742072656769737465726564206f6e20636861696e00600082015250565b60006107e7601f836106ad565b91506107f2826107b1565b602082019050919050565b60006020820190508181036000830152610816816107da565b9050919050565b7f496e766f69636520616c72656164792070616964000000000000000000000000600082015250565b60006108536014836106ad565b915061085e8261081d565b602082019050919050565b6000602082019050818103600083015261088281610846565b9050919050565b7f496e636f7272656374207061796d656e7420616d6f756e740000000000000000600082015250565b60006108bf6018836106ad565b91506108ca82610889565b602082019050919050565b600060208201905081810360008301526108ee816108b2565b905091905056fea26469706673582212209b472ddde63e2fd0b1b6b1da9a1a5425f2dbbc7012cd085727fd7bb2abe60e2a64736f6c63430008140033",
  "linkReferences": {},
  "deployedLinkReferences": {}
}